{
  "_format": "hh-sol-artifact-1",
  "contractName": "SkoinTokenSale",
  "sourceName": "contracts/SkoinTokenSale.sol",
  "abi": [
    {
      "inputs": [
        {
          "internalType": "contract SkoinToken",
          "name": "_tokenContract",
          "type": "address"
        },
        {
          "internalType": "uint256",
          "name": "_tokenPrice",
          "type": "uint256"
        }
      ],
      "stateMutability": "nonpayable",
      "type": "constructor"
    },
    {
      "anonymous": false,
      "inputs": [
        {
          "indexed": false,
          "internalType": "address",
          "name": "_buyer",
          "type": "address"
        },
        {
          "indexed": false,
          "internalType": "uint256",
          "name": "amount",
          "type": "uint256"
        }
      ],
      "name": "Sell",
      "type": "event"
    },
    {
      "inputs": [
        {
          "internalType": "uint256",
          "name": "_numberOfTokens",
          "type": "uint256"
        }
      ],
      "name": "buyToken",
      "outputs": [],
      "stateMutability": "payable",
      "type": "function"
    },
    {
      "inputs": [],
      "name": "endSale",
      "outputs": [],
      "stateMutability": "nonpayable",
      "type": "function"
    },
    {
      "inputs": [],
      "name": "tokenContract",
      "outputs": [
        {
          "internalType": "contract SkoinToken",
          "name": "",
          "type": "address"
        }
      ],
      "stateMutability": "view",
      "type": "function"
    },
    {
      "inputs": [],
      "name": "tokenPrice",
      "outputs": [
        {
          "internalType": "uint256",
          "name": "",
          "type": "uint256"
        }
      ],
      "stateMutability": "view",
      "type": "function"
    },
    {
      "inputs": [],
      "name": "tokensSold",
      "outputs": [
        {
          "internalType": "uint256",
          "name": "",
          "type": "uint256"
        }
      ],
      "stateMutability": "view",
      "type": "function"
    }
  ],
  "bytecode": "0x60806040523480156200001157600080fd5b5060405162000e5f38038062000e5f833981810160405281019062000037919062000180565b336000806101000a81548173ffffffffffffffffffffffffffffffffffffffff021916908373ffffffffffffffffffffffffffffffffffffffff16021790555081600160006101000a81548173ffffffffffffffffffffffffffffffffffffffff021916908373ffffffffffffffffffffffffffffffffffffffff160217905550806002819055505050620001c7565b600080fd5b600073ffffffffffffffffffffffffffffffffffffffff82169050919050565b6000620000f982620000cc565b9050919050565b60006200010d82620000ec565b9050919050565b6200011f8162000100565b81146200012b57600080fd5b50565b6000815190506200013f8162000114565b92915050565b6000819050919050565b6200015a8162000145565b81146200016657600080fd5b50565b6000815190506200017a816200014f565b92915050565b600080604083850312156200019a5762000199620000c7565b5b6000620001aa858286016200012e565b9250506020620001bd8582860162000169565b9150509250929050565b610c8880620001d76000396000f3fe60806040526004361061004a5760003560e01c80632d296bf11461004f578063380d831b1461006b578063518ab2a81461008257806355a373d6146100ad5780637ff9b596146100d8575b600080fd5b61006960048036038101906100649190610667565b610103565b005b34801561007757600080fd5b50610080610362565b005b34801561008e57600080fd5b506100976105c3565b6040516100a491906106a3565b60405180910390f35b3480156100b957600080fd5b506100c26105c9565b6040516100cf919061073d565b60405180910390f35b3480156100e457600080fd5b506100ed6105ef565b6040516100fa91906106a3565b60405180910390f35b61010f816002546105f5565b3414610150576040517f08c379a0000000000000000000000000000000000000000000000000000000008152600401610147906107db565b60405180910390fd5b80600160009054906101000a900473ffffffffffffffffffffffffffffffffffffffff1673ffffffffffffffffffffffffffffffffffffffff166370a08231306040518263ffffffff1660e01b81526004016101ac919061081c565b602060405180830381865afa1580156101c9573d6000803e3d6000fd5b505050506040513d601f19601f820116820180604052508101906101ed919061084c565b101561022e576040517f08c379a0000000000000000000000000000000000000000000000000000000008152600401610225906108eb565b60405180910390fd5b600160009054906101000a900473ffffffffffffffffffffffffffffffffffffffff1673ffffffffffffffffffffffffffffffffffffffff1663a9059cbb33836040518363ffffffff1660e01b815260040161028b92919061090b565b6020604051808303816000875af11580156102aa573d6000803e3d6000fd5b505050506040513d601f19601f820116820180604052508101906102ce919061096c565b61030d576040517f08c379a0000000000000000000000000000000000000000000000000000000008152600401610304906109e5565b60405180910390fd5b806003600082825461031f9190610a34565b925050819055507f5e5e995ce3133561afceaa51a9a154d5db228cd7525d34df5185582c18d3df09338260405161035792919061090b565b60405180910390a150565b60008054906101000a900473ffffffffffffffffffffffffffffffffffffffff1673ffffffffffffffffffffffffffffffffffffffff163373ffffffffffffffffffffffffffffffffffffffff16146103f0576040517f08c379a00000000000000000000000000000000000000000000000000000000081526004016103e790610ab4565b60405180910390fd5b600160009054906101000a900473ffffffffffffffffffffffffffffffffffffffff1673ffffffffffffffffffffffffffffffffffffffff1663a9059cbb60008054906101000a900473ffffffffffffffffffffffffffffffffffffffff16600160009054906101000a900473ffffffffffffffffffffffffffffffffffffffff1673ffffffffffffffffffffffffffffffffffffffff166370a08231306040518263ffffffff1660e01b81526004016104aa919061081c565b602060405180830381865afa1580156104c7573d6000803e3d6000fd5b505050506040513d601f19601f820116820180604052508101906104eb919061084c565b6040518363ffffffff1660e01b8152600401610508929190610af5565b6020604051808303816000875af1158015610527573d6000803e3d6000fd5b505050506040513d601f19601f8201168201806040525081019061054b919061096c565b61058a576040517f08c379a000000000000000000000000000000000000000000000000000000000815260040161058190610b90565b60405180910390fd5b60008054906101000a900473ffffffffffffffffffffffffffffffffffffffff1673ffffffffffffffffffffffffffffffffffffffff16ff5b60035481565b600160009054906101000a900473ffffffffffffffffffffffffffffffffffffffff1681565b60025481565b60008082148061061d57508282838561060e9190610bb0565b92508261061b9190610c21565b145b61062657600080fd5b92915050565b600080fd5b6000819050919050565b61064481610631565b811461064f57600080fd5b50565b6000813590506106618161063b565b92915050565b60006020828403121561067d5761067c61062c565b5b600061068b84828501610652565b91505092915050565b61069d81610631565b82525050565b60006020820190506106b86000830184610694565b92915050565b600073ffffffffffffffffffffffffffffffffffffffff82169050919050565b6000819050919050565b60006107036106fe6106f9846106be565b6106de565b6106be565b9050919050565b6000610715826106e8565b9050919050565b60006107278261070a565b9050919050565b6107378161071c565b82525050565b6000602082019050610752600083018461072e565b92915050565b600082825260208201905092915050565b7f56616c7565206973206e6f7420636f7272656374206163636f7264696e67207460008201527f6f20746f6b656e20707269636500000000000000000000000000000000000000602082015250565b60006107c5602d83610758565b91506107d082610769565b604082019050919050565b600060208201905081810360008301526107f4816107b8565b9050919050565b6000610806826106be565b9050919050565b610816816107fb565b82525050565b6000602082019050610831600083018461080d565b92915050565b6000815190506108468161063b565b92915050565b6000602082840312156108625761086161062c565b5b600061087084828501610837565b91505092915050565b7f53616c6520636f6e747261637420646f65736e2774206861766520726571756560008201527f73746564206e756d626572206f6620746f6b656e730000000000000000000000602082015250565b60006108d5603583610758565b91506108e082610879565b604082019050919050565b60006020820190508181036000830152610904816108c8565b9050919050565b6000604082019050610920600083018561080d565b61092d6020830184610694565b9392505050565b60008115159050919050565b61094981610934565b811461095457600080fd5b50565b60008151905061096681610940565b92915050565b6000602082840312156109825761098161062c565b5b600061099084828501610957565b91505092915050565b7f5472616e73666572206661696c65640000000000000000000000000000000000600082015250565b60006109cf600f83610758565b91506109da82610999565b602082019050919050565b600060208201905081810360008301526109fe816109c2565b9050919050565b7f4e487b7100000000000000000000000000000000000000000000000000000000600052601160045260246000fd5b6000610a3f82610631565b9150610a4a83610631565b9250828201905080821115610a6257610a61610a05565b5b92915050565b7f4f6e6c792061646d696e2063616e20656e6420746f6b656e2073616c65000000600082015250565b6000610a9e601d83610758565b9150610aa982610a68565b602082019050919050565b60006020820190508181036000830152610acd81610a91565b9050919050565b6000610adf8261070a565b9050919050565b610aef81610ad4565b82525050565b6000604082019050610b0a6000830185610ae6565b610b176020830184610694565b9392505050565b7f52656d61696e696e6720746f6b656e7320636f756c64206e6f7420626520747260008201527f616e73666572726564206261636b20746f2061646d696e000000000000000000602082015250565b6000610b7a603783610758565b9150610b8582610b1e565b604082019050919050565b60006020820190508181036000830152610ba981610b6d565b9050919050565b6000610bbb82610631565b9150610bc683610631565b9250828202610bd481610631565b91508282048414831517610beb57610bea610a05565b5b5092915050565b7f4e487b7100000000000000000000000000000000000000000000000000000000600052601260045260246000fd5b6000610c2c82610631565b9150610c3783610631565b925082610c4757610c46610bf2565b5b82820490509291505056fea2646970667358221220d0c5132be2e7054cee88141d1132919035954f7d7b0711f833d24c9c3878458e64736f6c63430008110033",
  "linkReferences": {},
  "deployedLinkReferences": {}
}