{
  "_format": "hh-sol-artifact-1",
  "contractName": "SkoinToken",
  "sourceName": "contracts/SkoinToken.sol",
  "abi": [
    {
      "inputs": [],
      "stateMutability": "nonpayable",
      "type": "constructor"
    },
    {
      "inputs": [],
      "name": "totalSupply",
      "outputs": [
        {
          "internalType": "uint256",
          "name": "",
          "type": "uint256"
        }
      ],
      "stateMutability": "view",
      "type": "function"
    }
  ],
  "bytecode": "0x608060405234801561001057600080fd5b50620186a060008190555060b3806100296000396000f3fe6080604052348015600f57600080fd5b506004361060285760003560e01c806318160ddd14602d575b600080fd5b60336047565b604051603e91906064565b60405180910390f35b60005481565b6000819050919050565b605e81604d565b82525050565b6000602082019050607760008301846057565b9291505056fea2646970667358221220298e93faed4bdd78cf5b4795be73d5a3a77e0084b1748e51731cb80a6f64d40164736f6c63430008110033",
  "linkReferences": {},
  "deployedLinkReferences": {}
}