{
  "_format": "hh-sol-artifact-1",
  "contractName": "SkoinToken",
  "sourceName": "contracts/SkoinToken.sol",
  "abi": [
    {
      "inputs": [
        {
          "internalType": "uint256",
          "name": "_initialSupply",
          "type": "uint256"
        }
      ],
      "stateMutability": "nonpayable",
      "type": "constructor"
    },
    {
      "anonymous": false,
      "inputs": [
        {
          "indexed": true,
          "internalType": "address",
          "name": "_from",
          "type": "address"
        },
        {
          "indexed": true,
          "internalType": "address",
          "name": "_to",
          "type": "address"
        },
        {
          "indexed": false,
          "internalType": "uint256",
          "name": "_value",
          "type": "uint256"
        }
      ],
      "name": "Transfer",
      "type": "event"
    },
    {
      "inputs": [
        {
          "internalType": "address",
          "name": "",
          "type": "address"
        }
      ],
      "name": "balanceOf",
      "outputs": [
        {
          "internalType": "uint256",
          "name": "",
          "type": "uint256"
        }
      ],
      "stateMutability": "view",
      "type": "function"
    },
    {
      "inputs": [],
      "name": "name",
      "outputs": [
        {
          "internalType": "string",
          "name": "",
          "type": "string"
        }
      ],
      "stateMutability": "view",
      "type": "function"
    },
    {
      "inputs": [],
      "name": "standard",
      "outputs": [
        {
          "internalType": "string",
          "name": "",
          "type": "string"
        }
      ],
      "stateMutability": "view",
      "type": "function"
    },
    {
      "inputs": [],
      "name": "symbol",
      "outputs": [
        {
          "internalType": "string",
          "name": "",
          "type": "string"
        }
      ],
      "stateMutability": "view",
      "type": "function"
    },
    {
      "inputs": [],
      "name": "totalSupply",
      "outputs": [
        {
          "internalType": "uint256",
          "name": "",
          "type": "uint256"
        }
      ],
      "stateMutability": "view",
      "type": "function"
    },
    {
      "inputs": [
        {
          "internalType": "address payable",
          "name": "_to",
          "type": "address"
        },
        {
          "internalType": "uint256",
          "name": "_value",
          "type": "uint256"
        }
      ],
      "name": "transfer",
      "outputs": [
        {
          "internalType": "bool",
          "name": "success",
          "type": "bool"
        }
      ],
      "stateMutability": "nonpayable",
      "type": "function"
    }
  ],
  "bytecode": "0x60806040526040518060400160405280600581526020017f536b6f696e000000000000000000000000000000000000000000000000000000815250600290816200004a9190620003d8565b506040518060400160405280600381526020017f534b4d000000000000000000000000000000000000000000000000000000000081525060039081620000919190620003d8565b506040518060400160405280600f81526020017f536b6f696e20546f656b6e20312e30000000000000000000000000000000000081525060049081620000d89190620003d8565b50348015620000e657600080fd5b5060405162000dc838038062000dc883398181016040528101906200010c9190620004f5565b80600160003373ffffffffffffffffffffffffffffffffffffffff1673ffffffffffffffffffffffffffffffffffffffff16815260200190815260200160002081905550806000819055505062000527565b600081519050919050565b7f4e487b7100000000000000000000000000000000000000000000000000000000600052604160045260246000fd5b7f4e487b7100000000000000000000000000000000000000000000000000000000600052602260045260246000fd5b60006002820490506001821680620001e057607f821691505b602082108103620001f657620001f562000198565b5b50919050565b60008190508160005260206000209050919050565b60006020601f8301049050919050565b600082821b905092915050565b600060088302620002607fffffffffffffffffffffffffffffffffffffffffffffffffffffffffffffffff8262000221565b6200026c868362000221565b95508019841693508086168417925050509392505050565b6000819050919050565b6000819050919050565b6000620002b9620002b3620002ad8462000284565b6200028e565b62000284565b9050919050565b6000819050919050565b620002d58362000298565b620002ed620002e482620002c0565b8484546200022e565b825550505050565b600090565b62000304620002f5565b62000311818484620002ca565b505050565b5b8181101562000339576200032d600082620002fa565b60018101905062000317565b5050565b601f82111562000388576200035281620001fc565b6200035d8462000211565b810160208510156200036d578190505b620003856200037c8562000211565b83018262000316565b50505b505050565b600082821c905092915050565b6000620003ad600019846008026200038d565b1980831691505092915050565b6000620003c883836200039a565b9150826002028217905092915050565b620003e3826200015e565b67ffffffffffffffff811115620003ff57620003fe62000169565b5b6200040b8254620001c7565b620004188282856200033d565b600060209050601f8311600181146200045057600084156200043b578287015190505b620004478582620003ba565b865550620004b7565b601f1984166200046086620001fc565b60005b828110156200048a5784890151825560018201915060208501945060208101905062000463565b86831015620004aa5784890151620004a6601f8916826200039a565b8355505b6001600288020188555050505b505050505050565b600080fd5b620004cf8162000284565b8114620004db57600080fd5b50565b600081519050620004ef81620004c4565b92915050565b6000602082840312156200050e576200050d620004bf565b5b60006200051e84828501620004de565b91505092915050565b61089180620005376000396000f3fe608060405234801561001057600080fd5b50600436106100625760003560e01c806306fdde031461006757806318160ddd146100855780635a3b7e42146100a357806370a08231146100c157806395d89b41146100f1578063a9059cbb1461010f575b600080fd5b61006f61013f565b60405161007c9190610532565b60405180910390f35b61008d6101cd565b60405161009a919061056d565b60405180910390f35b6100ab6101d3565b6040516100b89190610532565b60405180910390f35b6100db60048036038101906100d691906105eb565b610261565b6040516100e8919061056d565b60405180910390f35b6100f9610279565b6040516101069190610532565b60405180910390f35b61012960048036038101906101249190610682565b610307565b60405161013691906106dd565b60405180910390f35b6002805461014c90610727565b80601f016020809104026020016040519081016040528092919081815260200182805461017890610727565b80156101c55780601f1061019a576101008083540402835291602001916101c5565b820191906000526020600020905b8154815290600101906020018083116101a857829003601f168201915b505050505081565b60005481565b600480546101e090610727565b80601f016020809104026020016040519081016040528092919081815260200182805461020c90610727565b80156102595780601f1061022e57610100808354040283529160200191610259565b820191906000526020600020905b81548152906001019060200180831161023c57829003601f168201915b505050505081565b60016020528060005260406000206000915090505481565b6003805461028690610727565b80601f01602080910402602001604051908101604052809291908181526020018280546102b290610727565b80156102ff5780601f106102d4576101008083540402835291602001916102ff565b820191906000526020600020905b8154815290600101906020018083116102e257829003601f168201915b505050505081565b600081600160003373ffffffffffffffffffffffffffffffffffffffff1673ffffffffffffffffffffffffffffffffffffffff16815260200190815260200160002054101561038b576040517f08c379a0000000000000000000000000000000000000000000000000000000008152600401610382906107a4565b60405180910390fd5b81600160003373ffffffffffffffffffffffffffffffffffffffff1673ffffffffffffffffffffffffffffffffffffffff16815260200190815260200160002060008282546103da91906107f3565b9250508190555081600160008573ffffffffffffffffffffffffffffffffffffffff1673ffffffffffffffffffffffffffffffffffffffff16815260200190815260200160002060008282546104309190610827565b925050819055508273ffffffffffffffffffffffffffffffffffffffff163373ffffffffffffffffffffffffffffffffffffffff167fddf252ad1be2c89b69c2b068fc378daa952ba7f163c4a11628f55a4df523b3ef84604051610494919061056d565b60405180910390a392915050565b600081519050919050565b600082825260208201905092915050565b60005b838110156104dc5780820151818401526020810190506104c1565b60008484015250505050565b6000601f19601f8301169050919050565b6000610504826104a2565b61050e81856104ad565b935061051e8185602086016104be565b610527816104e8565b840191505092915050565b6000602082019050818103600083015261054c81846104f9565b905092915050565b6000819050919050565b61056781610554565b82525050565b6000602082019050610582600083018461055e565b92915050565b600080fd5b600073ffffffffffffffffffffffffffffffffffffffff82169050919050565b60006105b88261058d565b9050919050565b6105c8816105ad565b81146105d357600080fd5b50565b6000813590506105e5816105bf565b92915050565b60006020828403121561060157610600610588565b5b600061060f848285016105d6565b91505092915050565b60006106238261058d565b9050919050565b61063381610618565b811461063e57600080fd5b50565b6000813590506106508161062a565b92915050565b61065f81610554565b811461066a57600080fd5b50565b60008135905061067c81610656565b92915050565b6000806040838503121561069957610698610588565b5b60006106a785828601610641565b92505060206106b88582860161066d565b9150509250929050565b60008115159050919050565b6106d7816106c2565b82525050565b60006020820190506106f260008301846106ce565b92915050565b7f4e487b7100000000000000000000000000000000000000000000000000000000600052602260045260246000fd5b6000600282049050600182168061073f57607f821691505b602082108103610752576107516106f8565b5b50919050565b7f42616c616e6365206973206c657373207468616e20616d6f756e740000000000600082015250565b600061078e601b836104ad565b915061079982610758565b602082019050919050565b600060208201905081810360008301526107bd81610781565b9050919050565b7f4e487b7100000000000000000000000000000000000000000000000000000000600052601160045260246000fd5b60006107fe82610554565b915061080983610554565b9250828203905081811115610821576108206107c4565b5b92915050565b600061083282610554565b915061083d83610554565b9250828201905080821115610855576108546107c4565b5b9291505056fea2646970667358221220d6db62c358b83444134ef5336c2ba942cd7a9ac309f30c65ebf3f0d7695d999464736f6c63430008110033",
  "linkReferences": {},
  "deployedLinkReferences": {}
}